{
  "contractName": "Bet",
  "abi": [
    {
      "inputs": [
        {
          "internalType": "contract IERC20",
          "name": "_betToken",
          "type": "address"
        }
      ],
      "stateMutability": "nonpayable",
      "type": "constructor"
    },
    {
      "anonymous": false,
      "inputs": [
        {
          "indexed": true,
          "internalType": "address",
          "name": "firstPlace",
          "type": "address"
        },
        {
          "indexed": true,
          "internalType": "address",
          "name": "secondPlace",
          "type": "address"
        },
        {
          "indexed": true,
          "internalType": "address",
          "name": "thirdPlace",
          "type": "address"
        }
      ],
      "name": "OnBetFinish",
      "type": "event"
    },
    {
      "anonymous": false,
      "inputs": [
        {
          "indexed": true,
          "internalType": "address",
          "name": "previousOwner",
          "type": "address"
        },
        {
          "indexed": true,
          "internalType": "address",
          "name": "newOwner",
          "type": "address"
        }
      ],
      "name": "OwnershipTransferred",
      "type": "event"
    },
    {
      "inputs": [
        {
          "internalType": "uint256",
          "name": "",
          "type": "uint256"
        }
      ],
      "name": "betPlayer",
      "outputs": [
        {
          "internalType": "address",
          "name": "",
          "type": "address"
        }
      ],
      "stateMutability": "view",
      "type": "function",
      "constant": true
    },
    {
      "inputs": [],
      "name": "betToken",
      "outputs": [
        {
          "internalType": "contract IERC20",
          "name": "",
          "type": "address"
        }
      ],
      "stateMutability": "view",
      "type": "function",
      "constant": true
    },
    {
      "inputs": [],
      "name": "currentBet",
      "outputs": [
        {
          "internalType": "uint256",
          "name": "",
          "type": "uint256"
        }
      ],
      "stateMutability": "view",
      "type": "function",
      "constant": true
    },
    {
      "inputs": [],
      "name": "owner",
      "outputs": [
        {
          "internalType": "address",
          "name": "",
          "type": "address"
        }
      ],
      "stateMutability": "view",
      "type": "function",
      "constant": true
    },
    {
      "inputs": [],
      "name": "renounceOwnership",
      "outputs": [],
      "stateMutability": "nonpayable",
      "type": "function"
    },
    {
      "inputs": [
        {
          "internalType": "address",
          "name": "newOwner",
          "type": "address"
        }
      ],
      "name": "transferOwnership",
      "outputs": [],
      "stateMutability": "nonpayable",
      "type": "function"
    },
    {
      "inputs": [],
      "name": "bet",
      "outputs": [],
      "stateMutability": "nonpayable",
      "type": "function"
    },
    {
      "inputs": [],
      "name": "finishGame",
      "outputs": [],
      "stateMutability": "nonpayable",
      "type": "function"
    }
  ],
  "bytecode": "0x608060405234801561001057600080fd5b50604051610ccb380380610ccb8339818101604052602081101561003357600080fd5b505160006100486001600160e01b036100b716565b600080546001600160a01b0319166001600160a01b0383169081178255604051929350917f8be0079c531659141344cd1fd0a4f28419497f9722a3daafe3b4186f6b6457e0908290a350600180546001600160a01b0319166001600160a01b03929092169190911790556100bb565b3390565b610c01806100ca6000396000f3fe608060405234801561001057600080fd5b50600436106100885760003560e01c80638da5cb5b1161005b5780638da5cb5b146100e05780639fecb69f146100e8578063d504cb65146100f0578063f2fde38b1461010a57610088565b806311610c251461008d5780634a42020414610097578063715018a6146100d057806378691f16146100d8575b600080fd5b610095610130565b005b6100b4600480360360208110156100ad57600080fd5b50356102fc565b604080516001600160a01b039092168252519081900360200190f35b610095610317565b6100b46103cb565b6100b46103da565b6100956103e9565b6100f861082c565b60408051918252519081900360200190f35b6100956004803603602081101561012057600080fd5b50356001600160a01b0316610832565b600360025410610176576040805162461bcd60e51b815260206004820152600c60248201526b18995d08199a5b9a5cda195960a21b604482015290519081900360640190fd5b600154604080516323b872dd60e01b81523360048201523060248201526802b5e3af16b1880000604482015290516001600160a01b03909216916323b872dd916064808201926020929091908290030181600087803b1580156101d857600080fd5b505af11580156101ec573d6000803e3d6000fd5b505050506040513d602081101561020257600080fd5b50506001546001600160a01b031663a9059cbb61021d6103da565b610248606461023c6802b5e3af16b1880000600163ffffffff61093c16565b9063ffffffff61099e16565b6040518363ffffffff1660e01b815260040180836001600160a01b03166001600160a01b0316815260200182815260200192505050602060405180830381600087803b15801561029757600080fd5b505af11580156102ab573d6000803e3d6000fd5b505050506040513d60208110156102c157600080fd5b505060028054600090815260036020526040902080546001600160a01b03191633179055546102f790600163ffffffff6109e016565b600255565b6003602052600090815260409020546001600160a01b031681565b61031f610a3a565b6000546001600160a01b03908116911614610381576040805162461bcd60e51b815260206004820181905260248201527f4f776e61626c653a2063616c6c6572206973206e6f7420746865206f776e6572604482015290519081900360640190fd5b600080546040516001600160a01b03909116907f8be0079c531659141344cd1fd0a4f28419497f9722a3daafe3b4186f6b6457e0908390a3600080546001600160a01b0319169055565b6001546001600160a01b031681565b6000546001600160a01b031690565b600360025414610433576040805162461bcd60e51b815260206004820152601060248201526f18995d081b9bdd08199a5b9a5cda195960821b604482015290519081900360640190fd5b600360208181527f3617319a054d772f909f7c479a2cebe5066e836a939412e32403c99029b92eff547fa15bc60c955c405d20d9149c709e2460f1c2d9a497496a7f46004d1772c3054c54600260009081527fc3a24b0501bd2c13a7e57f2db4369ec4c223447539fc0724a9d55ac4a06ebd4d54604080516bffffffffffffffffffffffff19606096871b81168289015294861b851660348201529190941b909216604883015242605c83015244607c8301524340609c808401919091528351808403909101815260bc90920190925280519201919091209161051d90839063ffffffff610a3e16565b600154604080516370a0823160e01b815230600482015290519293506000926001600160a01b03909216916370a0823191602480820192602092909190829003018186803b15801561056e57600080fd5b505afa158015610582573d6000803e3d6000fd5b505050506040513d602081101561059857600080fd5b50516001546000848152600360208190526040909120549293506001600160a01b039182169263a9059cbb9216906105db9061023c86600263ffffffff61093c16565b6040518363ffffffff1660e01b815260040180836001600160a01b03166001600160a01b0316815260200182815260200192505050602060405180830381600087803b15801561062a57600080fd5b505af115801561063e573d6000803e3d6000fd5b505050506040513d602081101561065457600080fd5b506000905061066a84600263ffffffff610a3e16565b90506001819003836106a15761068782600163ffffffff6109e016565b915061069a81600163ffffffff6109e016565b90506106bf565b83600114156106bf5781600114156106b857600291505b8160020390505b6001546000838152600360209081526040918290205482516370a0823160e01b815230600482015292516001600160a01b039485169463a9059cbb9492169285926370a082319260248083019392829003018186803b15801561072157600080fd5b505afa158015610735573d6000803e3d6000fd5b505050506040513d602081101561074b57600080fd5b5051604080516001600160e01b031960e086901b1681526001600160a01b03909316600484015260248301919091525160448083019260209291908290030181600087803b15801561079c57600080fd5b505af11580156107b0573d6000803e3d6000fd5b505050506040513d60208110156107c657600080fd5b505060008181526003602052604080822054848352818320548784528284205492516001600160a01b039283169491831693909216917f16a0ac3b00ac389c21a26c2b53a0782a1606c5834c9834d83ec19a4be321b3899190a450506000600255505050565b60025481565b61083a610a3a565b6000546001600160a01b0390811691161461089c576040805162461bcd60e51b815260206004820181905260248201527f4f776e61626c653a2063616c6c6572206973206e6f7420746865206f776e6572604482015290519081900360640190fd5b6001600160a01b0381166108e15760405162461bcd60e51b8152600401808060200182810382526026815260200180610b856026913960400191505060405180910390fd5b600080546040516001600160a01b03808516939216917f8be0079c531659141344cd1fd0a4f28419497f9722a3daafe3b4186f6b6457e091a3600080546001600160a01b0319166001600160a01b0392909216919091179055565b60008261094b57506000610998565b8282028284828161095857fe5b04146109955760405162461bcd60e51b8152600401808060200182810382526021815260200180610bab6021913960400191505060405180910390fd5b90505b92915050565b600061099583836040518060400160405280601a81526020017f536166654d6174683a206469766973696f6e206279207a65726f000000000000815250610a80565b600082820183811015610995576040805162461bcd60e51b815260206004820152601b60248201527f536166654d6174683a206164646974696f6e206f766572666c6f770000000000604482015290519081900360640190fd5b3390565b600061099583836040518060400160405280601881526020017f536166654d6174683a206d6f64756c6f206279207a65726f0000000000000000815250610b22565b60008183610b0c5760405162461bcd60e51b81526004018080602001828103825283818151815260200191508051906020019080838360005b83811015610ad1578181015183820152602001610ab9565b50505050905090810190601f168015610afe5780820380516001836020036101000a031916815260200191505b509250505060405180910390fd5b506000838581610b1857fe5b0495945050505050565b60008183610b715760405162461bcd60e51b8152602060048201818152835160248401528351909283926044909101919085019080838360008315610ad1578181015183820152602001610ab9565b50828481610b7b57fe5b0694935050505056fe4f776e61626c653a206e6577206f776e657220697320746865207a65726f2061646472657373536166654d6174683a206d756c7469706c69636174696f6e206f766572666c6f77a2646970667358221220471a26965115a0679b9a5b091ab6d4eb98dd09e76d7722fa49d7335dc74ae5dc64736f6c63430006060033",
  "immutableReferences": {},
  "source": "pragma solidity >=0.6.6;\n\nimport \"@openzeppelin/contracts/token/ERC20/IERC20.sol\";\nimport \"@openzeppelin/contracts/math/SafeMath.sol\";\nimport \"@openzeppelin/contracts/access/Ownable.sol\";\n\ncontract Bet is Ownable {\n    using SafeMath for uint;\n\n    event OnBetFinish(address indexed firstPlace, address indexed secondPlace, address indexed thirdPlace);\n\n    IERC20 public betToken;\n    uint256 constant BET_AMOUNT = 50 * (10**18);\n\n    uint256 constant MAX_BET_COUNT = 3;\n    uint256 constant FEE = 1;\n    uint256 public currentBet;\n\n    mapping (uint256 => address) public betPlayer;\n\n    constructor(IERC20 _betToken) public {\n        betToken = _betToken;\n    }\n\n    function bet() external {\n        require (currentBet < MAX_BET_COUNT, 'bet finished');\n        betToken.transferFrom(msg.sender, address(this), BET_AMOUNT);\n        betToken.transfer(owner(), BET_AMOUNT.mul(FEE).div(100));\n        betPlayer[currentBet] = msg.sender;\n        currentBet = currentBet.add(1);\n    }\n\n    function finishGame() external /* onlyOwner */{\n        require (currentBet == MAX_BET_COUNT, 'bet not finished');\n        \n        uint rand = uint(keccak256(abi.encodePacked(betPlayer[0], betPlayer[1], betPlayer[2], block.timestamp, block.difficulty, blockhash(block.number))));\n        uint first = rand.mod(3);\n        uint balance = betToken.balanceOf(address(this));\n        betToken.transfer(betPlayer[first], balance.mul(2).div(3));\n        uint second = rand.mod(2);\n        uint third = 1 - second;\n        if (first == 0) {\n            second = second.add(1);\n            third = third.add(1);\n        } else if (first == 1) {\n            if (second == 1) {\n                second = 2;\n            }\n            third = 2 - second;\n        }\n        betToken.transfer(betPlayer[second], betToken.balanceOf(address(this)));\n\n        emit OnBetFinish(betPlayer[first], betPlayer[second], betPlayer[third]);\n\n        currentBet = 0;\n    }\n}\n",
  "sourcePath": "/Volumes/Work/Srikar/exercise/contracts/Bet.sol",
  "compiler": {
    "name": "solc",
    "version": "0.6.6+commit.6c089d02.Emscripten.clang"
  },
  "schemaVersion": "3.2.3",
  "updatedAt": "2021-01-04T01:28:42.343Z",
  "networkType": "ethereum",
  "devdoc": {
    "methods": {
      "owner()": {
        "details": "Returns the address of the current owner."
      },
      "renounceOwnership()": {
        "details": "Leaves the contract without owner. It will not be possible to call `onlyOwner` functions anymore. Can only be called by the current owner.     * NOTE: Renouncing ownership will leave the contract without an owner, thereby removing any functionality that is only available to the owner."
      },
      "transferOwnership(address)": {
        "details": "Transfers ownership of the contract to a new account (`newOwner`). Can only be called by the current owner."
      }
    }
  },
  "userdoc": {
    "methods": {}
  }
}